:020000040800F2
:1000000000200020DD010008E3010008E7010008EE
:1000100000000000000000000000000000000000E0
:100020000000000000000000000000001D020008A9
:100030000000000000000000210200082502000866
:100040002D0200082D0200082D0200082D020008D4
:100050002D0200082D0200082D0200082D020008C4
:100060002D0200082D0200082D0200082D020008B4
:100070002D0200082D0200082D0200082D020008A4
:100080002D0200082D020008000000002D020008CB
:100090002D0200082D0200082D0200082D02000884
:1000A0002D0200082D0200082D0200082D02000874
:1000B0002D020008000000002D02000800000000D2
:1000C0005FF808F130B583B000F03EF9314B324AA9
:1000D0001360324A1360324B324A33498B4204D2A6
:1000E0001168196004330432F7E72B4B1A682F4B61
:1000F0009A4200D0FEE7294B1A682D4B9A42F9D15B
:10010000244B2C4A13602C4A13602C4B02E0002233
:100110001A6004332A4A9342F9D3264B1B68002BFA
:1001200003D1254B1B68002B00D0FEE700F010F92F
:10013000694601A800F0B6F8224C234BE41AA4103B
:100140000025AC4214DC214C214BE41AA4100025FC
:10015000AC4213DC0099019800F01AFA05001D4C1E
:100160001D4BE41AA410002C0EDC280000F074F8DB
:10017000AA00154BD35898470135E2E7AA00144B63
:10018000D35898470135E3E7013CA200124BD358FE
:100190009847E8E7BABADECA0000002084000020D1
:1001A000000000202814000888000020785634122F
:1001B000325476988800002020010020880000201A
:1001C00024010020580200085802000858020008C4
:1001D00058020008580200085802000810B5FFF73E
:1001E00071FF00BEFEE704207146084202D0EFF323
:1001F000098001E0EFF3088071460B4A104770B5A3
:1002000004000D00044800F055F82900200000F01B
:10021000A3F800BEFEE7C0466012000800BEFEE77D
:1002200000BEFEE770470000FF01000800BEFEE7C9
:10023000281400080000002088000020281400086E
:1002400000000000000000008800002024010020C1
:080250000000000000000000A6
:10025800FEE7000010B503000D4A1268002A0BD013
:100268000B4A1068033303229343C318094A934285
:1002780006D8074A136010BD054A07491160EFE721
:1002880000F064FB0C23036001204042F3E7C04602
:100298008C000020001C00202401002001230360A2
:1002A800014B0B607047C046040000200FB400B536
:1002B80083B004AB04CB01938021064800F080FB97
:1002C800002803DD0100034800F036F803B008BC3D
:1002D80004B0184794000020F0B5C64600B586B0B3
:1002E800040001914356002B01D0019F1CE0042615
:1002F800301C211CABBE041C019806B004BC9046FF
:10030800F0BD0022A25602A9CA5401330134B342F7
:10031800F7D302AA904600224146CA540425281C55
:100328004146ABBE8046BF1B002FE5D03E00102FD4
:1003380000D910260023EAE710B5FFF7CDFF10BD5E
:1003480010B500F0A3F810BD10B500F0D1F810BD3D
:1003580070B504000D001548FFF7A8FF2168144880
:10036800FFF7A4FF61681348FFF7A0FFA1681248D0
:10037800FFF79CFFE1681148FFF798FF21691048D3
:10038800FFF794FF61690F48FFF790FFA1690E48D6
:10039800FFF78CFFE1690D48FFF788FF0C48FFF76E
:1003A80085FF29000B48FFF781FF70BDB0110008D9
:1003B800C0110008D0110008E0110008F011000871
:1003C800001200081012000820120008301200085D
:1003D800401200084812000882B0002301930093DD
:1003E800274A116880235B020B431360244B1B6868
:1003F8008022920213400093019B01330193009BDA
:10040800002B04D1019AA023DB019A42EED11C4BA8
:100418001B689B0306D501230093009B012B04D086
:1004280002B0704700230093F7E7164B11221A60B9
:10043800134B5A685A605A685A605A6812490A40F7
:100448005A605968882252030A435A601968802200
:1004580052040A431A600A4B1B689B01FBD5084BE0
:100468005A6803218A435A605A6801390A435A6014
:10047800034B5A680C231340082BF9D1D0E7C04628
:100488000010024000200240FF7FC0FF10B5124B51
:100498001A6801210A431A605A68104802405A60D3
:1004A8001A680F4802401A601A680E4802401A601B
:1004B8005A680D4802405A60DA6A0F208243DA62AD
:1004C8001A6B0A4802401A635A6B8A435A6300221D
:1004D8009A60FFF781FF10BD001002400CB8FFF8CA
:1004E800FFFFF6FEFFFFFBFFFFFFC0FFACFEFFFFB5
:1004F80010B5214B5A680C231340042B17D0082B36
:1005080019D0002B03D01D4B1D4A1A6002E01B4B6B
:100518001B4A1A60184B5A6812090F231340194ACC
:10052800D35CDBB2154A1168D940116010BD134B7A
:10053800134A1A60EEE7104B58685A68C0235B02EA
:10054800800C0F24044002341A4209D163011B1B9A
:100558009801C01AC00004192302084A1360D9E799
:10056800054BDB6A0F2119400131054800F062F99B
:100578004443024B1C60CDE7001002401C000020E1
:1005880000127A000C00002070B5A2B06B48FFF78B
:100598008DFE0024312C12D821AD01222100280023
:1005A80000F013F92A78A24202D10134E4B2F1E74B
:1005B80021006348FFF77AFE002022B070BD614831
:1005C800FFF774FE6048FFF771FE11A95F480B0042
:1005D800020013CA13C313CA13C31168196092889F
:1005E8009A8000240AE0220011A919A800F0E3F873
:1005F80019A95748FFF75AFE0134E4B21E2CF2D964
:100608005448FFF753FE5448FFF750FE43236B440A
:1006180001221A70002442236B441C700DE0422111
:1006280069440C70432068440470012200F0A8F863
:1006380003B2002B1FD10134E4B2FF2C3CD03F2C75
:10064800EDD963B2002B20DB432068440470631C9F
:10065800422169440B70012200F092F803B25A1C3F
:10066800E9D042226A4412784321694409783B4818
:10067800FFF71CFEA0E742226A441278432169442E
:1006880009783648FFF712FE96E7422169440C7054
:10069800631C432068440370012200F071F803B220
:1006A800012BC8D042226A44127843216944097850
:1006B8002A48FFF7FBFD7FE72948FFF7F7FD2948A0
:1006C800FFF7F4FD09AD284C2B00220003CA03C331
:1006D80012781A70152200212D20684400F03CF988
:1006E800280000F09AF801002048FFF7DFFD2048B5
:1006F800FFF7DCFD05A9236A0593A38C8B8007A867
:1007080000F082F807A800F088F8020007A9194845
:10071800FFF7CCFD1848FFF7C9FD03A8A36A0393A8
:10072800A38D838001A9236B0193A38E8B8000F096
:1007380055F801001148FFF7B9FD3EE7A812000877
:10074800B8120008EC12000808130008D4130008B7
:10075800181300081C1300082013000830130008A1
:100768005813000874130008701200088413000856
:100778009C130008AC130008C0130008D01300082D
:10078800131E16D030B403780C781D1B07D1013026
:100798000131013A131EF6D1001A30BC70471B1BF9
:1007A80003D4001A013030BC7047001A013830BC3D
:1007B8007047001A7047131E06D00B78037001307B
:1007C8000131013A131EF8D17047031C10B4197097
:1007D8000133013A141EFAD110BC704710B40278E4
:1007E8000B78D41A06D101300131141EF7D1001A42
:1007F80010BC7047D41A03D4001A013010BC7047DB
:10080800001A013810BC704701B40A780270013030
:100818000131131EF9D101BC7047491A921A0132ED
:10082800037801305B1A00D0F9E7013A001A101C6E
:1008380070470000002243088B4274D303098B429F
:100848005FD3030A8B4244D3030B8B4228D3030C98
:100858008B420DD3FF22090212BA030C8B4202D33A
:100868001212090265D0030B8B4219D300E0090A62
:10087800C30B8B4201D3CB03C01A5241830B8B426B
:1008880001D38B03C01A5241430B8B4201D34B0354
:10089800C01A5241030B8B4201D30B03C01A5241B9
:1008A800C30A8B4201D3CB02C01A5241830A8B423E
:1008B80001D38B02C01A5241430A8B4201D34B0227
:1008C800C01A5241030A8B4201D30B02C01A52418B
:1008D800CDD2C3098B4201D3CB01C01A524183093F
:1008E8008B4201D38B01C01A524143098B4201D379
:1008F8004B01C01A524103098B4201D30B01C01AA4
:100908005241C3088B4201D3CB00C01A524183081D
:100918008B4201D38B00C01A524143088B4201D34A
:100928004B00C01A5241411A00D2014652411046AA
:100938007047FFE701B5002000F006F802BDC04689
:100948000029F7D076E770477047C046014B186812
:100958007047C0462000002003001218934200D1BF
:10096800704719700133F9E730B514009BB00500E2
:100978001A00002C05DA8B230360012040421BB0CB
:1009880030BD822368469B00838100230091049137
:100998009C4200D0631E02930593012369465B4283
:1009A800CB8128001E9B00F079F8431C01DA8B23C9
:1009B8002B60002CE3D00023009A1370DFE70000BF
:1009C80007B5009313000A00010002480068FFF70A
:1009D800CBFF0EBD20000020F0B58E6885B0070063
:1009E8000C00039201939E423CD890238A89DB0035
:1009F8001A4234D00325096923685B1A0293636994
:100A080002985D43EB0F5D19019B6D1001331B18B4
:100A1800AB4200D91D00530532D52900380000F03B
:100A280023FB061E09D10C233B6040230120A28929
:100A380040421343A38105B0F0BD029A216900F03A
:100A4800ACFAA389144A1A4080231343A381029B5A
:100A58002661F61826606561019EED1AA560019B66
:100A68009E4200D9019E32000399206800F09EFA48
:100A7800A36800209B1BA36023689E192660DAE701
:100A88002A00380000F04EFB061EE0D1216938002C
:100A980000F0A0FAC7E7C0467FFBFFFFF0B5A1B0A2
:100AA80003901D008B890F0016001B0611D50B69DA
:100AB800002B0ED1402100F0D7FA386038610028A9
:100AC80005D10C23039A0138136021B0F0BD4023EF
:100AD8007B61002308AC6361203363761033A3760F
:100AE800079535002B78002B01D0252B46D1AB1B61
:100AF80005930CD0320039000398FFF76DFF431CB3
:100B080000D1AEE06269059B9446634463612B782B
:100B1800002B00D1A5E0012200235242626004A903
:100B2800543252186E1C2360E360A3601370A365EF
:100B380031780522534800F025FA751C00281FD18A
:100B48002268D30604D5532304A95B182021197001
:100B5800130704D5532304A95B182B211970337884
:100B68002A2B16D0350000210A20E3682A786E1C4B
:100B7800303A092A4ED9002918D010E00135B1E7DA
:100B8800404B2268C01A01238340134323602E0080
:100B9800CEE7079B191D1B680791002B01DB0B9300
:100BA80004E05B42E3600223134323602B782E2B7F
:100BB8000AD16B782A2B35D1079B02351A1D1B6881
:100BC8000792002B2BDB09932F4E29780322300044
:100BD80000F0D8F9002806D04023801B8340226803
:100BE8000135134323602978062228486E1C217694
:100BF80000F0C8F900283CD0254B002B25D107224E
:100C0800079B07339343083307936369049A9B1838
:100C1800636166E7434301219B183500A6E701237A
:100C28005B42D0E700230A201A0001356360297867
:100C38006E1C3039092903D9002BC5D00992C3E7A6
:100C48004243012352183500F1E707AB00933A00FD
:100C5800104B2100039800E000BF0490049B01336F
:100C6800D3D1BB890D985B0600D42EE70120404202
:100C78002BE707AB00933A00064B2100039800F0DE
:100C880079F8EAE7F4130008FA130008FE130008DD
:100C980000000000E1090008F7B5150001938A6813
:100CA8000B6900900C00934200DA130022002B60BD
:100CB80043321278002A01D001332B6023689B0647
:100CC80002D52B6802332B60062723681F4027D0E4
:100CD800230043331B785A1E93412268920630D46E
:100CE8002200019943320098089EB047431C25D042
:100CF800062320682A68E16803400025042B03D1F5
:100D08008D1AEB43DB171D40A3682269934201DD6E
:100D18009B1AED180027BD4220D1002010E00137B2
:100D2800E3682A689B1ABB42D2DD220001231932EC
:100D380001990098089EB047431CF0D10120404219
:100D4800FEBD3020E1184331087021005A1C45319E
:100D58000978A218433202331170C1E72200012337
:100D68001A3201990098089EB047431CE6D0013713
:100D7800D1E70000F0B589B004920A004332059328
:100D8800039002920A7E0C000E9B6E2A00D186E028
:100D98001FD8632A33D008D8002A00D18CE0582AFB
:100DA8004DD0250042352A7030E0642A01D0692AE6
:100DB800F7D1196825680A1D280629D508681A6018
:100DC800002803DA2D23029A404213706B4E0A273B
:100DD8004FE0732A74D008D86F2A1FD0702AE0D148
:100DE800202209680A43226003E0752A16D0782A6F
:100DF800D7D12200782145321170614E22E02500BA
:100E08001A684235111D196013682B70012365E0BB
:100E180008681A606906D3D500B2D1E71968256851
:100E2800081D186008682E0605D5544E08276F2A35
:100E38001BD00A2719E06D06F7D580B2F5E74531D2
:100E48004E4E0A7018682268011D00681960150660
:100E580021D5D30702D520231A4322601027002862
:100E680003D1202322689A432260230000224333BF
:100E78001A706368A360002B58DB04222168914331
:100E88002160002854D1029D002B5AD025003378C8
:100E980042352B7055E05506DBD580B2D9E71A6884
:100EA8000D68101D4969186013682E0601D5196070
:100EB80002E06D06FBD519800023029D23614FE0F7
:100EC8001A68111D1960156800216268280000F071
:100ED80059F8002801D0401B606063682361002333
:100EE800029A13703CE023692A0004990398059D2F
:100EF800A847431C3ED023689B0715D4079BE0688E
:100F0800984239DA180037E022000123193204998F
:100F18000398059EB047431C2CD00135E368079A17
:100F28009B1AAB42F0DCE9E70025F7E70028ADD0D3
:100F3800029D3900FFF704FD735C013D2B7000280A
:100F4800F7D1082F09D12368DB0706D56368226922
:100F5800934202DC3023013D2B70029B5B1B236113
:100F6800059B07AA00932100049B0398FFF794FEB2
:100F7800431CB8D10120404209B0F0BD0514000857
:100F880016140008C9B28218904201D10020704797
:100F980003788B42FBD00130F6E7002310B59A4264
:100FA80000D110BDCC5CC4540133F8E710B58842B9
:100FB80002D98B18984203D3002307E08B5C835433
:100FC800013AFBD210BDCC5CC45401339A42FAD129
:100FD800F8E7000070B50500002910D00C1F236841
:100FE800002B00DAE418280000F0D4F81D4A136832
:100FF800002B05D163601460280000F0CCF870BDA8
:10100800A34209D9216860188342F3D118685B6844
:1010180041182160EEE713005A68002A01D0A24265
:10102800F9D919685818A0420BD12068091858181E
:1010380019608242E0D110685268411819605A60FC
:10104800DAE7A04202D90C232B60D5E721686018A3
:10105800824203D1106852684118216062605C6066
:10106800CAE7C04614010020032370B5CD1C9D4378
:10107800083506000C2D1ED20C25A9421DD83000BB
:1010880000F088F8254A14682100002919D1244C59
:101098002368002B03D1300000F06AF82060290093
:1010A800300000F065F8431C2BD10C23300033606E
:1010B80000F071F803E0002DDFDA0C233360002024
:1010C80070BD0B685B1B19D40B2B03D90B60CC18B4
:1010D800256003E04B688C420DD11360300000F0AE
:1010E8005AF8200007220B30231D9043C31AE7D07B
:1010F8005A42E250E4E763600C00EFE70C004968ED
:10110800C3E70323C41C9C43A042E1D0211A30004A
:1011180000F02EF8431CDBD1C7E7C04614010020BD
:1011280018010020F8B507000D001600002905D1A8
:101138001100FFF799FF04002000F8BD002A03D131
:10114800FFF748FF3400F7E700F026F82C00B0421C
:10115800F2D231003800FFF787FF041EECD02900D7
:101168003200FFF71AFF29003800FFF733FFE3E7E3
:10117800002370B5064C050008002360FFF76AF8E5
:10118800431C03D12368002B00D02B6070BDC046E0
:101198001C010020704770470B1F1B68181F002B8D
:1011A80001DA0B58C0187047537461636B2066727C
:1011B800616D653A0A000000205230203D2020254C
:1011C8003038580A00000000205231203D202025E8
:1011D8003038580A00000000205232203D202025D7
:1011E8003038580A00000000205233203D202025C6
:1011F8003038580A0000000020523132203D2025A6
:101208003038580A00000000204C52203D2020258C
:101218003038580A00000000205043203D20202587
:101228003038580A0000000020505352203D202535
:101238003038580A000000004D6973630A00000046
:10124800204C522F4558435F52455455524E3D202D
:10125800253038580A0000005B48617264466175A1
:101268006C745D0A0000000041696C736F6E6E6EED
:101278000000000000000000000000000000000066
:10128800000000000000000041496C736F6E000010
:1012980041696C736F6E000061696C736F6E00005A
:1012A8005445535445204D454D534554200A0A0092
:1012B8006F732076616C6F72657320646520692096
:1012C800282564292065207374725B305D202825E9
:1012D80064292073616F206469666572656E746540
:1012E800730A00006D656D73657420706173736FA8
:1012F80075206E6F207465737465200A0A000000FB
:101308005445535445204D454D435059200A0A0031
:1013180025730A000A0A00005445535445204D45D8
:101328004D434D50200A0A0046616C686F752120B4
:1013380061203D202564202062203D202564202056
:101348006D796D656D636D70203D2025640A000020
:101358006D656D636D7020706173736F75206E6F4E
:10136800207465737465200A0A00000054455354BC
:1013780045205354524C454E200A0A0054616D6171
:101388006E686F20737472696E67203D2025640A49
:1013980000000000544553544520535452435059BB
:1013A800200A0A002573202054616D616E686F3A27
:1013B8002025640A00000000544553544520535426
:1013C80052434D50200A0A0025640A006A65206DC0
:1013D80027617070656C6C652041696C736F6E2055
:1013E800416C6578616E647265000000232D302BB6
:1013F8002000686C4C00656667454647003031320E
:101408003334353637383941424344454600303164
:0F141800323334353637383961626364656600C4
:1014280078563412900000200000000000000000F0
:10143800000000000102030406070809006CDC0232
:101448002400002000000000000000000000000050
:101458000000000000000000000000000000000084
:101468000000000000000000000000000000000074
:101478000000000000000000000000000000000064
:101488000000000000000000000000000000000054
:101498000000000000000000000000000000000044
:0814A8000000000032547698A8
:04000005080000C52A
:00000001FF
